:100000000C9434000C94AC000C9451000C945100EE
:100010000C9451000C9451000C9451000C9451001C
:100020000C9451000C9451000C9451000C9451000C
:100030000C9451000C9451000C9495000C945100B8
:100040000C9451000C9451000C9451000C945100EC
:100050000C9451000C9451000C9451000C945100DC
:100060000C9451000C94510011241FBECFEFD8E026
:10007000DEBFCDBF11E0A0E0B1E0ECE4F6E002C0ED
:1000800005900D92A230B107D9F721E0A2E0B1E0CE
:1000900001C01D92AD30B207E1F70E9461010C94DE
:1000A00024030C94000082E080936900E89A08958C
:1000B00085B5887F85BD089582E084BDEEE6F0E0D9
:1000C0008081826080830E9458008DE087BD089502
:1000D0000E9453000C945C0083E085BD089510924B
:1000E000090110920A0110920B0110920C0108955F
:1000F0006091090170910A0180910B0190910C01AE
:10010000089580910601089510920601089581E0F6
:1001100080930601089581E080930501089510926F
:10012000050108958091050108951F920F920FB661
:100130000F9211248F939F93809107019091080152
:10014000019690930801809307019F918F910F90E2
:100150000FBE0F901F9018951F920F920FB60F921F
:1001600011242F933F934F935F936F937F938F93BC
:100170009F93AF93BF93CF93EF93FF93809104012D
:10018000813061F018F08230F1F055C083E085BD18
:10019000109208011092070181E00BC02091070125
:1001A000309108011092080110920701283220F0C6
:1001B00082E0809304013FC0109204018093050106
:1001C0000E94580038C02091070130910801109218
:1001D00008011092070180910301909100012531DF
:1001E00038F0E82FF0E0E75FFE4F2081292B2083D5
:1001F000990F90930001909102019F5F90930201EB
:10020000983041F491E090930001109202018F5FC9
:100210008093030180910301843069F4C1E0C093AD
:1002200000011092020110920301109204010E9439
:100230005800C0930601FF91EF91CF91BF91AF910C
:100240009F918F917F916F915F914F913F912F91EE
:100250000F900FBE0F901F901895BC0180E090E0AA
:100260000E9496029B01AC0160E074E284E799E48D
:100270000E94F50120E030E040E05FE30E94880149
:100280000E9467027093C5006093C40088E1809368
:10029000C10086E08093C20008959091C00095FF50
:1002A000FCCF8093C6000895E1ECF0E08081877E6A
:1002B000808308958091C00087FFFCCF8091C600A5
:1002C00008950E94680080E895E20E942D010E9436
:1002D0008F000E946F0078940E948100882371F043
:1002E0000E947800C82F611104C07F3F11F40E9462
:1002F0004D010E9484000E946F00EECF0E94920088
:10030000882351F38C2F0E944D010E948F00E4CF6F
:100310005058BB27AA270E94A0010C94EA020E9411
:10032000DC0238F00E94E30220F039F49F3F19F418
:1003300026F40C94D9020EF4E095E7FB0C94D3025A
:10034000E92F0E94FB0258F3BA176207730784076C
:10035000950720F079F4A6F50C941D030EF4E095B2
:100360000B2EBA2FA02D0B01B90190010C01CA016F
:10037000A0011124FF27591B99F0593F50F4503E1A
:1003800068F11A16F040A22F232F342F4427585F0C
:10039000F3CF469537952795A795F0405395C9F724
:1003A0007EF41F16BA0B620B730B840BBAF09150DC
:1003B000A1F0FF0FBB1F661F771F881FC2F70EC07B
:1003C000BA0F621F731F841F48F48795779567954E
:1003D000B795F7959E3F08F0B0CF9395880F08F03A
:1003E0009927EE0F9795879508950E9409020C941E
:1003F000EA020E94E30258F00E94DC0240F029F475
:100400005F3F29F00C94D30251110C941E030C94FD
:10041000D9020E94FB0268F39923B1F3552391F3AB
:10042000951B550BBB27AA2762177307840738F063
:100430009F5F5F4F220F331F441FAA1FA9F335D0C0
:100440000E2E3AF0E0E832D091505040E695001C74
:10045000CAF72BD0FE2F29D0660F771F881FBB1F2E
:10046000261737074807AB07B0E809F0BB0B802D0C
:10047000BF01FF2793585F4F3AF09E3F510578F038
:100480000C94D3020C941E035F3FE4F3983ED4F324
:10049000869577956795B795F7959F5FC9F7880F0C
:1004A000911D9695879597F90895E1E0660F771F5E
:1004B000881FBB1F621773078407BA0720F0621BEF
:1004C000730B840BBA0BEE1F88F7E09508950E941A
:1004D000030388F09F5798F0B92F9927B751B0F0D0
:1004E000E1F0660F771F881F991F1AF0BA95C9F7B8
:1004F00014C0B13091F00E941D03B1E008950C9436
:100500001D03672F782F8827B85F39F0B93FCCF3E8
:10051000869577956795B395D9F73EF49095809534
:10052000709561957F4F8F4F9F4F0895E89409C054
:1005300097FB3EF490958095709561957F4F8F4F16
:100540009F4F9923A9F0F92F96E9BB279395F6952C
:10055000879577956795B795F111F8CFFAF4BB0FAA
:1005600011F460FF1BC06F5F7F4F8F4F9F4F16C00E
:10057000882311F096E911C0772321F09EE8872F98
:10058000762F05C0662371F096E8862F70E060E054
:100590002AF09A95660F771F881FDAF7880F9695CD
:1005A000879597F9089597F99F6780E870E060E074
:1005B00008959FEF80EC089500240A9416161706FC
:1005C00018060906089500240A9412161306140644
:1005D00005060895092E0394000C11F4882352F0A7
:1005E000BB0F40F4BF2B11F460FF04C06F5F7F4F5F
:1005F0008F4F9F4F089557FD9058440F551F59F046
:100600005F3F71F04795880F97FB991F61F09F3FFF
:1006100079F087950895121613061406551FF2CF28
:100620004695F1DF08C0161617061806991FF1CF78
:1006300086957105610508940895E894BB2766279F
:0C0640007727CB0197F90895F894FFCFBD
:02064C000100AB
:00000001FF
