:100000000C947D000C949A000C949A000C949A0025
:100010000C949A000C949A000C949A000C949A00F8
:100020000C949A000C949A000C949A000C949A00E8
:100030000C949A000C949A000C949A000C949A00D8
:100040000C949A000C949A000C949A000C949A00C8
:100050000C949A000C949A000C949A000C949A00B8
:100060000C949A000C949A00F8034C036003E0038C
:1000700055031105110511056A046D03E1047E04A1
:10008000A703AB048D06A106A106A106A106A10641
:10009000A106A106A106A1069006A106A1069B063F
:1000A0009706A10624069F0627062A062D06300677
:1000B0003306360639063C069306A106A106A106BC
:1000C000A106A106A1063F064206450648064B06C4
:1000D0004E065106540657065A065D06600663062C
:1000E000660669066C066F067206750678067B065C
:1000F0007E068106840687068A0611241FBECFEF7E
:10010000D8E0DEBFCDBF17E0A0E0B1E0E6ECFFE154
:1001100002C005900D92A235B107D9F727E0A2E5FC
:10012000B7E001C01D92A835B207E1F70E944C0C60
:100130000C94E10F0C9400000F931F9389015BE076
:10014000459F90011124E7E04E9FA00111240E94D9
:1001500046081F910F9108954F925F926F927F9280
:100160008F929F92AF92BF92CF92DF92EF92FF92C7
:100170000F931F93CF93DF934C018A0159016A01BA
:10018000CC0CDD1CC40ED51EC60ED71E3A01660C63
:10019000771C660C771C6C0C7D1C412CC42DD0E0A8
:1001A000C017D107D0F4512CC80DD91DE52CF12C66
:1001B000E016F10680F4B3016E0D7F1DA501CE019E
:1001C0000E94FB0BB6016E0D7F1DA501CE010E94A2
:1001D000FB0B5394EBCF4394E1CFDF91CF911F9171
:1001E0000F91FF90EF90DF90CF90BF90AF909F90D6
:1001F0008F907F906F905F904F9008958F929F9215
:10020000AF92BF92CF92DF92EF92FF920F931F9324
:10021000CF93DF938A0159016C01C40ED51E89E08A
:10022000849F7001859FF00C1124E60EF71E812C2F
:10023000C82DD0E0C017D10790F4912CCC0DDD1D56
:10024000692D70E06017710740F46E0D7F1DA501E8
:10025000CE010E94FB0B9394F3CF8394E9CFDF91FF
:10026000CF911F910F91FF90EF90DF90CF90BF90B3
:10027000AF909F908F9008956F927F928F929F92F0
:10028000AF92BF92CF92DF92EF92FF920F931F93A4
:10029000CF93DF934A0159017C01E40EF51E85E0FE
:1002A000849F8001859F100D1124060F171F6A017E
:1002B000CC0CDD1CCC0CDD1C612CC62DD0E0CC158B
:1002C000DD0590F4712CCE0DDF1D672D70E06815F3
:1002D000790540F4600F711FA501CE010E94FB0B50
:1002E0007394F3CF6394E9CFDF91CF911F910F9176
:1002F000FF90EF90DF90CF90BF90AF909F908F9046
:100300007F906F9008956F927F928F929F92AF929D
:10031000BF92CF92DF92EF92FF920F931F93CF93F2
:10032000DF935C017B01C42F6901033009F44BC0EA
:1003300018F4002381F0ACC0063021F0093009F434
:1003400081C0A6C0D42FD695772473947D0E4C011E
:100350006624639453C0D42FD69540FD02C01D2F50
:1003600002C01FEF1D0F772473947D0E612E6D1A4E
:100370004501161589F0012F071548F4B701600FE4
:10038000711DA601C4010E94FB0B0F5FF5CF115038
:100390008FEF881A980AEDCF912E9D1A892C8D0E19
:1003A000DC1708F075C085010D0F111D871448F486
:1003B000B701680D711DA601C8010E94FB0B839453
:1003C000F5CFDF5FEBCFC150D0E0CF3F09F460C085
:1003D0001D2F45018D0E911C1C1748F4B701610FAC
:1003E000711DA601C4010E94FB0B1F5FF5CFDF5FEB
:1003F000C150EBCF63948FEF881A980A671479F095
:100400008701802F8E198615A8F7A601B801C401AF
:100410000E94FB0B0F5F1F4FF4CFDF5F7A94DC1756
:10042000B8F5470185010D0F111D882D8E1987150F
:10043000A0F7A601B401C8010E94FB0B8FEF881A38
:10044000980AF3CF842F869540FF05C0782E992413
:100450009394980E06C077247A94780E99249394F6
:10046000980ED0E06D2E690C872C8D1ADC1781F068
:1004700085010D0F111D861448F4B701680D711D1B
:10048000A601C8010E94FB0B8394F5CFDF5FEACF82
:10049000DF91CF911F910F91FF90EF90DF90CF9060
:1004A000BF90AF909F908F907F906F9008952F9204
:1004B0003F924F925F926F927F928F929F92AF92F4
:1004C000BF92CF92DF92EF92FF920F931F93CF9341
:1004D000DF9300D000D000D0CDB7DEB76C017B0138
:1004E0005A0139012801261B370B3A8329838A01D7
:1004F000081B190B17FF03C0119501951109CA14A8
:10050000DB0420F022242A94322C03C022242394DA
:10051000312C89819A819E838D8397FF05C09195A7
:10052000819591099E838D832D813E813195219501
:1005300031093C832B83E614F70428F08FEF9FEFFB
:100540009A83898304C021E030E03A8329834801FB
:100550008D819E81881A990AA201B701C6010E9465
:10056000FB0BC401880F991F2B813C8182179307D5
:1005700064F0CA14DB0499F02D813E81821A930A3B
:10058000C20CD31C081719073CF3E614F70439F022
:10059000800E911E89819A81E80EF91EDDCF269684
:1005A0000FB6F894DEBF0FBECDBFDF91CF911F9184
:1005B0000F91FF90EF90DF90CF90BF90AF909F9002
:1005C0008F907F906F905F904F903F902F90089505
:1005D0002F923F924F925F926F927F928F929F9253
:1005E000AF92BF92CF92DF92EF92FF920F931F9341
:1005F000CF93DF93CDB7DEB72A970FB6F894DEBF5F
:100600000FBECDBF7C016B015A8749873B832A838C
:10061000E02F29852887440F440F4C8349855A854C
:10062000569547955F834E830E814F5F4983522FC6
:10063000541B5D83E13009F4D9C0E43009F4BEC035
:10064000E73009F4E1C0E83009F403C18EEF8E0F02
:100650008230B0F0E53049F1E63009F4E2C1EA3029
:10066000E1F1ED3009F473C0E93009F431C1EB3048
:1006700009F4A5C1EC3009F43FC1EE3009F469C1B9
:100680008E2F90E0FC013197EE30F10508F0C9C1E2
:10069000EC5CFF4F0C94130E25E049855A85249F8E
:1006A000C001259F900D112415C025E049855A856C
:1006B000249FC001259F900D1124C80ED91EB1C1E1
:1006C00025E049855A85249FC001259F900D11245E
:1006D000C80ED91EE80EF91EA4C129853A85B901B4
:1006E00080E090E00E94E60E4B015C01B70180E0E3
:1006F00090E00E94E60E2B013C012DEC3CEC4CE21C
:1007000050E4C501B4010E94740F9B01AC01C30108
:10071000B2010E944B0E0E94B70E7B01B60180E031
:1007200090E00E94E60E2B013C0120E030E040E02A
:100730005FE3C501B4010E94740F9B01AC01C301CA
:10074000B2010E944B0E0E94B70E6B012BC049856F
:100750005A85BA0180E090E00E94E60E4B015C01F0
:10076000B70180E090E00E94E60E2B013C012DECE9
:100770003CEC4CE250E4C501B4010E94740F9B01B3
:10078000AC01C301B2010E944B0E0E94B70E7B0167
:1007900025E049855A85249FC001259F900D11248D
:1007A000C80ED91E20E030E040E650E4C501B40197
:1007B0000E94740F0E94B70E6C8333C111E001C018
:1007C00012E085E029853A85829F5001839FB00C15
:1007D0001124AE0CBF1C2AE049855A85249FC00114
:1007E000259F900D1124C80ED91E6FC011E001C0C5
:1007F00012E085E029853A85829F5001839FB00CE5
:100800001124AE0CBF1C61C025E049855A85249F88
:10081000C001259F900D1124C80ED91EBA0180E099
:1008200090E00E94E60E2B013C01B70180E090E0D1
:100830000E94E60E4B015C0120E030E040E250E413
:10084000C301B2010E94740F9B01AC01C501B40148
:100850002BC025E049855A85249FC001259F900D16
:100860001124C80ED91EBA0180E090E00E94E60E65
:100870002B013C0120E030E040E250E40E94740F84
:100880004B015C01B70180E090E00E94E60EA501FB
:1008900094010E944B0E0E94B70E7B0180E090E015
:1008A0000E94E60EA50194010E944B0E0E94B70E15
:1008B0005B0120E030E040EC5FE3C301B2010E9445
:1008C000740F0E94B70E6C8311E0612C712CAEC0C6
:1008D00013E001C012E089849A848E0C9F1C298445
:1008E0003A842C0C3D1CA984BA84AA0CBB1CA80C0D
:1008F000B91C29853A8579C013E001C012E0A984AA
:10090000BA84AA0CBB1C89849A848A0C9B1C8E0C0A
:100910009F1C49855A85BA0180E090E00E94E60E4E
:1009200020E030E040E950E40E94740F2B013C01CC
:10093000B60180E090E00E94E60E9B01AC01C3018D
:10094000B2010E944B0E0E94B70E1B01A80CB91CED
:100950002CC013E001C012E089849A84880C991C91
:1009600089859A85880E991E8E0C9F1CBC0180E09B
:1009700090E00E94E60E20E030E040E950E40E9462
:10098000740F2B013C01B60180E090E00E94E60E5E
:100990009B01AC01C301B2010E944B0E0E94B70E35
:1009A0001B01A984BA84AE0CBF1C69847A8453E00D
:1009B000660C771C5A95E1F76C0C7D1C3BC013E06C
:1009C00001C012E085E029853A85829F4001839F1E
:1009D000900C11248E0C9F1C19012C0C3D1CC9017C
:1009E000880F991F5401A81AB90AB90180E090E054
:1009F0000E94E60E20E030E040E950E40E94740FCF
:100A00002B013C01B60180E090E00E94E60E9B01C4
:100A1000AC01C301B2010E944B0E0E94B70E3B0114
:100A200009C012E0612C712CA12CB12C212C312C8D
:100A3000812C912C398530FD02C00E81015012307D
:100A400031F0133041F0702E5D81751A10C0902E78
:100A50004D81941A5BC089859A85880F991F9F8361
:100A60008E83E12CF12CA3C001509F5F9983071561
:100A700091F0102F47012981820E911C998119173D
:100A800098F7B601610F711D4A815B81C4010E9414
:100A9000FB0B1F5FF3CF29853A85215031092C0DBF
:100AA0003D1DA501415051090A811B81B60189856F
:100AB0009A858E0D9F1D0E94860B39854C81340FBF
:100AC0003983AD80A39451E05C8398842C81921A81
:100AD0002A1509F481C0B22E87013981030F111D37
:100AE000B91450F4B6016B0D711D4A815B81C801C8
:100AF0000E94FB0BB394F4CF89818F5F89839C8123
:100B00009F5F9C83E2CF01504F5F4983091591F0AD
:100B1000102F56015981A50EB11C4981141798F761
:100B20004A815B81B501C701810F911D0E94FB0BBA
:100B30001F5FF3CF85E049855A85849F9001859F8B
:100B4000300D1124215031092C0D3D1D415051090A
:100B50004E0D5F1D69857A856C0D7D1D0A811B8197
:100B6000C7010E94860B59858C81580F59839D813E
:100B70009F5F9C83BB24B39498849B183C81B316DD
:100B800059F1AB2C86014981040F111DA91450F4B1
:100B90004A815B81B801C7018A0D911D0E94FB0B40
:100BA000A394F4CF29812F5F2983B394E5CF8E815D
:100BB0009F81E816F90681F093012E0D3F1DB101CA
:100BC0006E0D7F1D0A811B81A501C4010E94570281
:100BD0005FEFE51AF50AEBCF2A960FB6F894DEBF61
:100BE0000FBECDBFDF91CF911F910F91FF90EF907E
:100BF000DF90CF90BF90AF909F908F907F906F903D
:100C00005F904F903F902F9008958F929F92AF9258
:100C1000BF92CF92DF92EF92FF920F931F93CF93E9
:100C2000DF937C016B015A014901002E000C110B6E
:100C3000220B330BF801B097EB33F10508F081C0BC
:100C4000EE5BFF4F0C94130EA4E1B1E07AC0A2E377
:100C5000B1E077C0A1E4B1E074C0A0E5B1E071C03B
:100C6000AFE5B1E06EC0AEE6B1E06BC0ADE7B1E0BC
:100C700068C0ACE8B1E065C0ABE9B1E062C0AAEA27
:100C8000B1E05FC0A9EBB1E05CC0A8ECB1E059C035
:100C9000A7EDB1E056C0A6EEB1E053C0A5EFB1E0BC
:100CA00050C0A4E0B2E04DC0A3E1B2E04AC0A2E26D
:100CB000B2E047C0A1E3B2E044C0A0E4B2E041C06A
:100CC000AFE4B2E03EC0AEE5B2E03BC0ADE6B2E0BC
:100CD00038C0ACE7B2E035C0ABE8B2E032C0AAE958
:100CE000B2E02FC0A9EAB2E02CC0A8EBB2E029C064
:100CF000A7ECB2E026C0A6EDB2E023C0A5EEB2E0BC
:100D000020C0A4EFB2E01DC0A3E0B3E01AC0A2E18E
:100D1000B3E017C0A1E2B3E014C0AFE3B3E011C089
:100D2000AEE4B3E00EC094010E94AC0015C0940183
:100D30000E94FE0011C094010E943C010DC0A3E27C
:100D4000B1E0ED010991002339F09401A501B6014C
:100D5000C7010E94E802F6CF81E0DF91CF911F9199
:100D60000F91FF90EF90DF90CF90BF90AF909F904A
:100D70008F9008952F923F924F925F926F927F9241
:100D80008F929F92AF92BF92CF92DF92EF92FF929B
:100D90000F931F93CF93DF9300D01F92CDB7DEB791
:100DA0005C016B015B834A8349013801270187E0BD
:100DB000849F1001859F300C112419822981822F74
:100DC00090E08201080F191FF80120812223E1F031
:100DD000289E7001299EF00C389EF00C1124EA0C1C
:100DE000FB1C93014A81B601C7010E949C00F801D7
:100DF000008194014A815B81B601C7010E9405060A
:100E0000F981FF5FF983DACF0F900F900F90DF9198
:100E1000CF911F910F91FF90EF90DF90CF90BF90F7
:100E2000AF909F908F907F906F905F904F903F908A
:100E30002F9008958F929F92BF92CF92DF92EF9260
:100E4000FF920F931F93CF93DF93EC016B01F42E6E
:100E5000B52E490198010E949C000E2D94014F2D42
:100E60005B2DB601CE010E940506DF91CF911F9147
:100E70000F91FF90EF90DF90CF90BF909F908F9059
:100E80000895EF920F931F93E9E0EE1530F0EE2DE9
:100E9000F0E0E65FFE4FE08002C0E8E5EE2E0E9443
:100EA0001A071F910F91EF9008952F923F924F9242
:100EB0005F926F927F928F929F92AF92BF92CF92EA
:100EC000DF92EF92FF920F931F93CF93DF93CDB7F3
:100ED000DEB72D970FB6F894DEBF0FBECDBF9B8750
:100EE0008A87F42E490180EE8C0D2AE0829FF00162
:100EF0001124E35AFC4F30813983E32FF0E0FB8368
:100F0000EA83A42EB12C9501220F331F3D832C833D
:100F1000150132E0230E311C2AE0829FF0011124DA
:100F2000FF83EE836C877D87C12CD12C8E819F81BE
:100F30008C0D9D1DFC01E35AFC4FF987E887612C5D
:100F4000712C512C80E8482EF9815F16F9F0E88564
:100F5000F98581818421A9F08A859B85860D971D5D
:100F6000EE2041F094014C815D816C857D850E946D
:100F7000FD0807C084019501A5016C857D850E944F
:100F8000460846945394620C731CDECF2FEFC21AAE
:100F9000D20A8C859D85820D931D9D878C8799E053
:100FA000C916D10419F682E08F0DEA818E9F800D5B
:100FB00011242D960FB6F894DEBF0FBECDBFDF9182
:100FC000CF911F910F91FF90EF90DF90CF90BF9046
:100FD000AF909F908F907F906F905F904F903F90D9
:100FE0002F9008952F923F924F925F926F927F922F
:100FF0008F929F92AF92BF92CF92DF92EF92FF9229
:101000000F931F93CF93DF9300D01F92CDB7DEB71E
:101010009B838A835B01498349013801FE2C1601B9
:10102000412C512CD12CF101ED0DF11DC080CC20B3
:1010300079F0EF2C830194014981B5018A819B816C
:10104000840D951D0E945507480E511CD394EBCF7B
:101050000F900F900F90DF91CF911F910F91FF9004
:10106000EF90DF90CF90BF90AF909F908F907F9048
:101070006F905F904F903F902F9008950E94EC09E1
:101080000E94F6090E94840A0C94F9090F931F9399
:10109000260F371F480F591F0E94860B1F910F9173
:1010A00008956F927F928F929F92AF92BF92CF924C
:1010B000DF92EF92FF920F931F93CF93DF936C0118
:1010C0005B013A014901E80187019E010E9446083F
:1010D000B4016C1B7D0B6A0D7B1D9E01A301C60133
:1010E0000E9446089401AE01B501C6010E9446085F
:1010F000C3018C1B9D0B9401AE01B5018C0D9D1D90
:101100000E944608DF91CF911F910F91FF90EF90C1
:10111000DF90CF90BF90AF909F908F907F906F9017
:1011200008958F929F92AF92BF92CF92DF92EF92EB
:10113000FF920F931F93CF93DF936C014B015901E3
:1011400000271127041B150BC1E0D0E0C41BD50BF1
:10115000CC0FDD1FE12CF12CA501B701680D791D25
:10116000C601801B910B0E94FB0BA501B401601B03
:10117000710BC6018E199F090E94FB0BA501B401DA
:101180006E197F09C8018C0D9D1D0E94FB0BA501E6
:10119000B801680D791DC7018C0D9D1D0E94FB0BC8
:1011A000EC16FD0684F08FEFE81AF80AC701880FE5
:1011B000991F01968C0F9D1F0C171D072CF0E81628
:1011C000F9065CF401C0CE010F5F1F4FE801CC0FA0
:1011D000DD1F2196C80FD91F01C0EC0117FDBCCF40
:1011E000DF91CF911F910F91FF90EF90DF90CF9003
:1011F000BF90AF909F908F9008952F923F924F9203
:101200005F926F927F928F929F92AF92BF92CF9296
:10121000DF92EF92FF920F931F93CF93DF9300D053
:1012200000D0CDB7DEB75C014B017A011901CA01CC
:101230000196849F9001859F300D949F300D11245D
:101240003A832983CC24DD24C41AD50ADC82CB82DC
:101250002B813C81E216F30664F18B819C81889F8F
:101260002001899F500C500C112486013C01680C10
:10127000791CE016F106BCF0009FC001019F900DA3
:10128000900D1124840D951D29813A8182179307B1
:101290003CF4A101B301C8018A0D9B1D0E94FB0B08
:1012A0000F5F1F4FE6CF8B819C8101969C838B83C0
:1012B000CFCF0F900F900F900F90DF91CF911F9194
:1012C0000F91FF90EF90DF90CF90BF90AF909F90E5
:1012D0008F907F906F905F904F903F902F900895E8
:1012E000AF92BF92CF92DF92EF92FF920F931F9334
:1012F000CF93DF937C015B018A016901C0E0D0E0FC
:10130000B5016C0F7D1FA601C7010E94FB0B219642
:101310000C171D07ACF7DF91CF911F910F91FF9034
:10132000EF90DF90CF90BF90AF900895AF92BF92B3
:10133000CF92DF92EF92FF920F931F93CF93DF93A1
:101340007C016B018A015901C0E0D0E0A501B60122
:10135000C7018C0F9D1F0E94FB0B21960C171D07C8
:10136000ACF7DF91CF911F910F91FF90EF90DF903D
:10137000CF90BF90AF900895EF92FF920F931F937D
:10138000CF93DF937C01C0E0D0E000E010E0A70144
:10139000BE01C8010E94FB0B2196C03481E0D80732
:1013A000B0F30F5F1F4F003F110518F4C0E0D0E00D
:1013B000EECFDF91CF911F910F91FF90EF900895A5
:1013C0000C94E60A5F9A08952A9A0895299A089536
:1013D0005C9A08955B9A0895259A2498239A229AF4
:1013E000219A579A559A549A5398089580E58CBD3E
:1013F00008950E94E8090C94EA0981E01C9B80E0B2
:101400000895882311F02B9A08952B980895882326
:1014100019F00E94E20908955F980895882319F051
:101420000E94E40908952A980895882319F00E94DB
:10143000E609089529980895882311F05D9A089582
:101440005D980895882319F00E94E80908955C9832
:101450000895882319F00E94EA0908955B98089579
:10146000CF93DF93D82FC62F80E00E940E0A8D2FD6
:101470000E94070ACEBD0DB407FEFDCF8DB50E94B8
:10148000E4098EB5DF91CF910895CF93C62F682FD1
:1014900080E00E94300A6C2F81E0CF910C94300ADA
:1014A00090935707809356078A35910569F018F491
:1014B000892B41F00895843B910541F08E30914095
:1014C00091F0089560E003C060E60EC060EC86E332
:1014D0000E94450A80EF90E090935507809354074F
:1014E00080E491E00CC060EA86E30E94450A80E453
:1014F00091E0909355078093540780EF90E090938C
:1015000053078093520708950E94E2090E94E4095C
:1015100080E00E94150A80E00E94070A0E94E60906
:1015200061E180E00E94300A69E280E00E94300AB6
:1015300065E58AE30E94450A60E086E30E94450A69
:101540006CE380EC0E94450A61E082EC0C94450A51
:10155000CF93DF93D82FC62F80E00E940E0A8D2FE5
:101560000E94070ACEBD0DB407FEFDCF8DB51EBC8F
:101570000DB407FEFDCF8DB50E94E4098EB5DF9155
:10158000CF910895CF93DF93C82F80E00E94220A65
:10159000CEBD00000DB407FEFDCF8EB51EBC000011
:1015A0000DB407FEFDCFCEB580E1C89FE001112448
:1015B0001EBC00000DB407FEFDCF8EB5C80FD11DB7
:1015C0000E94E809CE01DF91CF910895AF92BF92BA
:1015D000CF92DF92EF92FF920F931F93CF93DF93FF
:1015E0006C017B015A0180915607909157078A350B
:1015F0009105E1F050F4892BC9F581ED90E00E944E
:10160000C20A8C0181E990E02DC0843B9105D1F0A4
:101610008E30914059F581E990E00E94C20A00E3C2
:1016200018E0081B190B81ED90E01CC081E990E0E7
:101630000E94C20A8C0181ED90E00E94C20AC0E3C0
:10164000D8E00DC081ED90E00E94C20AC0E3D8E06E
:101650008E01081B190B81E990E00E94C20AC81B89
:10166000D90B08C00E94C20AEC0104C0C0E0D0E05F
:1016700000E010E080EB90E00E94C20AF501918347
:1016800080839801205B3109A0915407B0915507E0
:101690000E94190E20E837E040E050E00E94F40D6F
:1016A000F601318320839E01205E3109A09152070B
:1016B000B09153070E94190E20E537E040E050E05A
:1016C0000E94F40DF701318320838091540790919B
:1016D0005507F60120813181821B930B9183808312
:1016E0008091520790915307F70120813181821B2D
:1016F000930B91838083DF91CF911F910F91FF9086
:10170000EF90DF90CF90BF90AF9008956F927F924F
:101710008F929F92AF92BF92CF92DF92EF92FF9201
:101720000F931F93CF93DF934C01EB015A01690193
:101730007A01E81AF90A8FEFE81AF80A3901661AED
:10174000770A8FEF681A780A6AE280E00E94300A0E
:10175000692D81E00E94300A682D81E00E94300AE4
:101760006B2D81E00E94300A6A2D81E00E94300AD0
:101770006BE280E00E94300A6D2F81E00E94300A07
:101780006C2F81E00E94300A6D2D81E00E94300AAA
:101790006C2D81E00E94300A6CE280E00E94300AE9
:1017A0009701D3010E94190E4B015C01C12CD12C71
:1017B0007601C814D904EA04FB0471F0612F81E0BA
:1017C0000E94300A602F81E00E94300A8FEFC81A11
:1017D000D80AE80AF80AEDCFDF91CF911F910F9157
:1017E000FF90EF90DF90CF90BF90AF909F908F9041
:1017F0007F906F900895EF92FF920F931F93CF9376
:10180000DF93F82EE92E162F072FEA016AE280E017
:101810000E94300A6E2D81E00E94300A6F2D81E017
:101820000E94300A6BE280E00E94300A602F81E063
:101830000E94300A612F81E00E94300A6CE280E051
:101840000E94300A6D2F81E00E94300A6C2F81E0E7
:10185000DF91CF911F910F91FF90EF900C94300A80
:10186000E82F87FDE0E08091800081688093800010
:10187000809181008A6080938100EA300CF0E9E079
:101880000E2E000CFF0BE050FF4F808190E09093F4
:1018900089008093880008950E943E088AE590E0C0
:1018A0000E94500A00E010E020E431E040EF50E0F8
:1018B00060E070E080E090E00E94460820E030E0C8
:1018C00042E050E06BE470E084E690E00E94910812
:1018D00020E030E043E050E064E670E084E690E031
:1018E0000E94910820E030E044E050E06DE770E0B5
:1018F00084E690E00E94910820E030E045E050E06E
:1019000066E970E084E690E00E94910820E030E013
:1019100046E050E06FEA70E084E690E00E949108B3
:1019200020E030E047E050E068EC70E084E690E0D2
:101930000E94910820E030E048E050E061EE70E065
:1019400084E690E00E94910820E030E049E050E019
:101950006AEF70E084E690E00E949108C3E1CC2E2B
:10196000C7E0DC2EEE24E39400E615E02CE033E63D
:1019700041E06AE570E08AE090E00E94F2078AE2C6
:10198000E82E87E0F82E00E615E020E030E043E0A6
:1019900050E06AE070E08AE090E00E94BA062FEF23
:1019A00083ED90E3215080409040E1F700C00000BB
:1019B00096E3E92E97E0F92E20E030E043E050E096
:1019C0006AE070E08AE090E00E94BA062FEF83EDB3
:1019D00090E3215080409040E1F700C0000022E4F5
:1019E000E22E27E0F22E20E030E044E150E06AE011
:1019F00070E08AE090E00E94BA062FEF83ED90E35A
:101A0000215080409040E1F700C0000034E4E32E14
:101A100037E0F32E20E030E044E150E06AE070E08F
:101A20008AE090E00E94BA062FEF83ED90E3215008
:101A300080409040E1F700C0000046E4E42E47E01B
:101A4000F42E20E030E044E150E06AE070E08AE00B
:101A500090E00E94BA062FEF83ED90E32150804082
:101A60009040E1F700C0000058E4E52E57E0F52E65
:101A700020E030E044E150E06AE070E08AE090E08D
:101A80000E94BA062FEF83ED90E3215080409040F2
:101A9000E1F700C000006AE4E62E67E0F62E20E0E1
:101AA00030E044E150E06AE070E08AE090E00E94BB
:101AB000BA062FEF83ED90E3215080409040E1F78C
:101AC00000C000007CE4E72E77E0F72E20E030E055
:101AD00044E150E06AE070E08AE090E00E94BA06DB
:101AE0002FEF83ED90E3215080409040E1F700C05C
:101AF0000000EEE4EE2EE7E0FE2E20E030E044E1D0
:101B000050E06AE070E08AE090E00E94BA062FEFB1
:101B100083ED90E3215080409040E1F700C0000049
:101B2000F0E4EF2EF7E0FF2E20E030E044E150E05B
:101B30006AE070E08AE090E00E94BA062FEF83ED41
:101B400090E3215080409040E1F700C00000A4E302
:101B5000EA2EA7E0FA2E20E030E044E150E06AE00F
:101B600070E08AE090E00E94BA062FEF83ED90E3E8
:101B7000215080409040E1F700C00000B0E5EB2E1E
:101B8000B7E0FB2E20E030E044E150E06AE070E096
:101B90008AE090E00E94BA062FEF83ED90E3215097
:101BA00080409040E1F700C00000C0E08C2F0E9410
:101BB000300C2FEF89E698E1215080409040E1F70A
:101BC00000C00000CF5FCA3089F78C2F0E94300C14
:101BD0002FEF89E698E1215080409040E1F700C066
:101BE0000000C15091F7CBCE052E97FB1EF4009458
:101BF0000E940B0E57FD07D00E94280E07FC03D051
:101C00004EF40C940B0E50954095309521953F4F16
:101C10004F4F5F4F089590958095709561957F4FD8
:101C20008F4F9F4F0895EE0FFF1F0590F491E02D09
:101C30000994A29FB001B39FC001A39F700D811DA5
:101C40001124911DB29F700D811D1124911D0895C5
:101C5000A1E21A2EAA1BBB1BFD010DC0AA1FBB1FB0
:101C6000EE1FFF1FA217B307E407F50720F0A21B22
:101C7000B30BE40BF50B661F771F881F991F1A948F
:101C800069F760957095809590959B01AC01BD01B9
:101C9000CF0108955058BB27AA270E94620E0C94CA
:101CA0003A0F0E942C0F38F00E94330F20F039F4C5
:101CB0009F3F19F426F40C94290F0EF4E095E7FBEE
:101CC0000C94230FE92F0E944B0F58F3BA176207A9
:101CD00073078407950720F079F4A6F50C946D0F2F
:101CE0000EF4E0950B2EBA2FA02D0B01B901900137
:101CF0000C01CA01A0011124FF27591B99F0593F7B
:101D000050F4503E68F11A16F040A22F232F342FC2
:101D10004427585FF3CF469537952795A795F04010
:101D20005395C9F77EF41F16BA0B620B730B840B25
:101D3000BAF09150A1F0FF0FBB1F661F771F881FDD
:101D4000C2F70EC0BA0F621F731F841F48F4879535
:101D500077956795B795F7959E3F08F0B0CF939527
:101D6000880F08F09927EE0F9795879508950E94A0
:101D7000530F88F09F5798F0B92F9927B751B0F0BB
:101D8000E1F0660F771F881F991F1AF0BA95C9F7FF
:101D900014C0B13091F00E946D0FB1E008950C9421
:101DA0006D0F672F782F8827B85F39F0B93FCCF3D4
:101DB000869577956795B395D9F73EF4909580957C
:101DC000709561957F4F8F4F9F4F0895E89409C09C
:101DD00097FB3EF490958095709561957F4F8F4F5E
:101DE0009F4F9923A9F0F92F96E9BB279395F69574
:101DF000879577956795B795F111F8CFFAF4BB0FF2
:101E000011F460FF1BC06F5F7F4F8F4F9F4F16C055
:101E1000882311F096E911C0772321F09EE8872FDF
:101E2000762F05C0662371F096E8862F70E060E09B
:101E30002AF09A95660F771F881FDAF7880F969514
:101E4000879597F9089597F99F6780E870E060E0BB
:101E500008959FEF80EC089500240A941616170643
:101E600018060906089500240A941216130614068B
:101E700005060895092E0394000C11F4882352F0EE
:101E8000BB0F40F4BF2B11F460FF04C06F5F7F4FA6
:101E90008F4F9F4F089557FD9058440F551F59F08D
:101EA0005F3F71F04795880F97FB991F61F09F3F47
:101EB00079F087950895121613061406551FF2CF70
:101EC0004695F1DF08C0161617061806991FF1CFC0
:101ED00086957105610508940895E894BB276627E7
:101EE0007727CB0197F908950E94870F0C943A0F3A
:101EF0000E942C0F38F00E94330F20F0952311F030
:101F00000C94230F0C94290F11240C946E0F0E9433
:101F10004B0F70F3959FC1F3950F50E0551F629FD3
:101F2000F001729FBB27F00DB11D639FAA27F00D32
:101F3000B11DAA1F649F6627B00DA11D661F829F59
:101F40002227B00DA11D621F739FB00DA11D621F3E
:101F5000839FA00D611D221F749F3327A00D611D5B
:101F6000231F849F600D211D822F762F6A2F11243D
:101F70009F5750409AF0F1F088234AF0EE0FFF1F70
:101F8000BB1F661F771F881F91505040A9F79E3FC7
:101F9000510580F00C94230F0C946E0F5F3FE4F317
:101FA000983ED4F3869577956795B795F795E7951D
:101FB0009F5FC1F7FE2B880F911D9695879597F926
:061FC0000895F894FFCF24
:101FC600000102040810204080FF303132333435DE
:101FD6003637383901020603050400000000000008
:101FE60000000002030000000000000000000000E6
:101FF60000000102080705040000000000000000C0
:1020060000010208030400000000000000000000B8
:10201600060207080300000000000000000000019F
:102026000607080304000000000000000000010687
:1020360007080503040000000000000000010B0D66
:10204600000000000000000000000000010206077A
:10205600080503040000000000000001060207084E
:10206600030000000000000000000106020708054A
:10207600030000000000000000010A02080D03042E
:10208600000000000000000001060504000000003A
:1020960000000000000000010A020D030400000019
:1020A600000000000000010607080504000000000B
:1020B60000000000000106070805000000000000FF
:1020C60000000000010608050304000000000000EF
:1020D60000000006020708050300000000000000DB
:1020E6000000010A0D0400000000000000000000CE
:1020F60000020503040000000000000000000000CC
:10210600060B07050C00000000000000000000069A
:1021160005040000000000000000000000000609A1
:102126000B02050300000000000000000006090283
:10213600050C030000000000000000000106020577
:10214600030400000000000000000001060207086A
:1021560005000000000000000000010602050C0357
:102166000400000000000000000106020708050C3C
:10217600000000000000000001060708030400003C
:1021860000000000000000010A0D00000000000031
:102196000000000000000602050304000000000025
:1021A6000000000000060B050E0000000000000005
:1021B600000000000602050E0C03000000000000EF
:1021C600000000090B0E0C000000000000000000DB
:1021D6000000090B0D0000000000000000000000D8
:1021E60000010B0E040000000000000000000000CB
:1021F60007080000000000000000000000000000CA
:1022060000000000000000000000000000000106C1
:10221600090A0B020708050E0D0C03040001000055
:1022260000000000000000018080808080008000A7
:102236000003A0A000000000000000055050F85068
:10224600F850500000052070A86030A870200005E6
:10225600C8D0102040589800000540A040A8909093
:10226600680000018080000000000000000240803D
:1022760080808080808040028040404040404040D6
:102286008005A87070A80000000000030000004050
:10229600E040000000010000000000008080000314
:1022A60000000000E0000000000100000000000047
:1022B600800000050808102040808000000460901F
:1022C600909090906000000240C040404040400026
:1022D6000004609010204080F00000046090102000
:1022E600109060000004206060A0F0202000000430
:1022F600F080E090109060000004609080E0909084
:1023060060000004F010202040404000000460906F
:102316009060909060000004609090701090600053
:1023260000010000800080000000000100000000A5
:1023360080008080000300002040804020000003D1
:102346000000E000E00000000003000080402040A4
:1023560080000004609010204000400000083C42CD
:1023660099A9A996403C000460909090F090900046
:102376000004E09090E09090E0000004609080807F
:10238600809060000004E09090909090E00000043F
:10239600F08080E08080F0000004F08080E08080A3
:1023A60080000004609080B090B0500000049090CF
:1023B60090F0909090000001808080808080800066
:1023C60000041010101090906000000490A0C0C08F
:1023D600A09090000004808080808080F00000053E
:1023E60088D8A8A888888800000490D0D0B0B0907B
:1023F6009000000570888888888870000004E09046
:1024060090E080808000000460909090D0B06010D2
:102416000004E09090E0909090000004609080604E
:10242600109060000005F8202020202020000004E5
:1024360090909090909060000004909090909060A2
:1024460060000005888888A8A85050000004909075
:1024560060606090900000058850202020202000B9
:102466000004F01020404080F0000002C080808010
:1024760080808080C005808040201008080000020F
:10248600C040404040404040C00340A00000000023
:10249600000000050000000000000000F801808038
:1024A6000000000000000004000060107090700042
:1024B60000048080E0909090E000000400006090AE
:1024C60080906000000410107090909070000004DE
:1024D60000006090F08060000002408080C0808034
:1024E600800000040000709090907010E0048080DE
:1024F600A0D09090900000018000808080808000B5
:10250600000240004040404040800004808090A08F
:10251600C0A090000001808080808080800000053F
:102526000000F0A8A8A8A80000040000E090909081
:10253600900000040000609090906000000400008D
:10254600E0909090E0808004000070909090701071
:1025560010030000E080808080000004000070808E
:102566006010E00000020080C0808080400000040F
:102576000000909090907000000400009090906091
:1025860060000005000088A8A85050000004000064
:1025960090906090900000040000909090907010D1
:1025A600E0040000F0204080F0000003204040409E
:1025B6008040404020018080808080808080800331
:1025C6008040404020404040800400000050A00071
:1025D600000000486575746520696D205261646964
:1025E6006F3A20526164696F210032312D30302EEE
:1025F60039393A38380032322E30313A31312D37C6
:102606003700300031003200330034003500360028
:02261600390089
:00000001FF
